:040000000C9451000B
:100004000C9443010C9400000C9400000C94000028
:100014000C9400000C9400000C9400000C94AC00B0
:100024000C9400000C9400000C9400000C9400004C
:100034000C9400000C9400000C9400000C9400003C
:100044000C9400000C9400000C9400000C9400002C
:100054003132333435363738392A3023010005003C
:10006400313A6F6E20323A6F666600333A6C6F63D2
:100074006B20343A756E6C6F636B000080C00100B6
:10008400020060000200040062000B0060016400D2
:1000940010006B016F0002007B0180000000F894E7
:1000A400EE27ECBBF1E0FBBFEBBFE5BF8DE0A2E0C8
:1000B400BB27ED938A95E9F780E094E0A0E6ED9301
:1000C4000197E9F7E2E8F0E085919591009761F0F6
:1000D400A591B59105901590BF01F00105900D9281
:1000E4000197E1F7FB01F0CFEFE5EDBFE4E0EEBFF0
:1000F400C0E6D1E00C944C011A930A93E1E4F0E0D9
:10010400E419F509A8EEB3E00E94D7028F016894C0
:1001140022F81DBD0CBDEEB5E560EEBD0991199147
:100124000895AA93E881E03011F40C949202A88116
:10013400A13011F4689420F8A881A23019F4E8944D
:1001440020F821F8A881A33019F4E89421F8D4DF29
:100154000C949202EA93EFB7EA93E89422F8E0E071
:10016400EEBDE991EFBFE99118951A9310E0249739
:10017400CB9902C0249640C0E0E0EA83EB83AA81D5
:10018400BB811397BCF5E8B3EF60E8BB18B2EA8112
:10019400A1E00E94B802E095E121E8BBA5E0B0E04F
:1001A4000E94AA02E0E0E883E983A881B981149758
:1001B400DCF40E94940291F4A881B981E3E00E94E6
:1001C400D102EC5AFF4FAA81BB81EA0FFB1F1491A5
:1001D4000E949402E9F3E12F24960EC0E881F9818C
:1001E4003196E883F983E1CFEA81FB813196EA8392
:1001F400FB83C5CF2496BBCF19910895AA93E881B8
:10020400E03011F40C949202A881A13011F46894A6
:1002140020F8A881A23011F4E89420F8A881A33032
:1002240011F4689423F8A881A43011F4E89423F815
:10023400A881A53011F4E89421F80C9492020E944C
:100244001802A8D0E0E0EA93A0E00E940802AAE025
:10025400B0E00E94AA02A0E6B1E00E944502AFE02D
:10026400B0E00E94AA02E0E0EA93A1E00E94080242
:10027400AFE0B0E00E94AA02ABE6B1E00E94450202
:100284000895EA93EFB720FE02C0689421F8EFBF07
:10029400E99118957894E0E0EABBEFE0E7BBE0EF82
:1002A400E8BBEFEFE4BBE0E0E5BBE0EEE1BBE0E49C
:1002B400E2BBEBBFE3E0E5BFE0E7EABF969A9598BF
:1002C400E9B7E460E9BFA0E10E94670263D0B7DF49
:1002D4002197E0E0E883C89B02C0E1E0E883C99B82
:1002E40002C0E2E0E883CA9B02C0E3E0E883CB9B60
:1002F40002C0E1E0E88323FC02C0A88112DFCB9BAB
:1003040021C02297E0E0E98330DFE883A881A133AC
:1003140011F4E1E0E983A881A23311F4E2E0E98376
:10032400A881A33311F4E3E0E983A881A43311F491
:10033400E4E0E983A881A53311F4E5E0E983A98128
:100344005DDF229620FE02C0E1E001C0E0E0E03083
:1003540011F4969801C0969A21FE02C022FE01C0B3
:1003640002C0E1E001C0E0E0E03011F4959801C082
:10037400959A22FE02C0E1E001C0E0E0E03011F411
:10038400979801C0979A2196A3CFFFCFFFE0FA95E3
:10039400F1F70895A4B3AF70A4BBA99AA898F6DFA7
:1003A400AA9AF4DFA3B3AA98F1DFAA9AEFDFAA9876
:1003B400A7FDF5CF0895A07FAB2BA5BBAA9A0E94F9
:1003C400C801AA980E94C8010895AA93A998A4B341
:1003D400A76FA4BBB5B3BF70A881EDDFA881A295B8
:1003E400EADFA99A0C949202AA9A0E94C801E3B384
:1003F400AA980E94C801E07F08950E94C801F4DF12
:10040400AE2FF2DFA998E295EA2B0895AA930E94F1
:10041400CC01E881F0E0E558FE4FE081A981AE0F00
:100424000E94E70179806880229608950E94CC0199
:10043400A2E00E94E7010E94CC01ACE00E94E70127
:100444000E94CC01A1E00E94E701E0E06E2E7E2E26
:100454000895AA93EF93FF93A8816894AA3019F0A2
:10046400E894791430F06394E0E0EA93A62DCEDFAB
:1004740036F073948FDFA89AA8810E94E701FF9158
:10048400EF910C949202BA93AA931A93A981BA8118
:10049400ED91A983BA831E2FE03019F0A12FD9DF83
:1004A400F5CF188123960895AA27BB271197F1F752
:1004B4000895AA93A998A4B3A76FA4BBB5B3BF70BA
:1004C400A8810E94DD01A99A2BC0AA93AA98A89892
:1004D4009880E881E058E0937D01E881E054E0935E
:1004E4007E012ED02DD02CD0DFDFA0E2E2DFDCDFD6
:1004F400A8E22AD0A4E028D0A5E826D0A4B3AF70FF
:10050400A4BBA99A0E94FF01E53011F0E0E008C005
:100514000E94CC01A6E00E94E7010E941802E1E0DB
:100524002196089516B2E881F9813496A1E0B0E0ED
:100534000E94C002A12DB0E0EA23FB233097089566
:100544000E945602A0E3B5CF0E94E7010C94560224
:10055400109639F0A8958AEF90E00197F1F711977A
:10056400C9F70895F195E195F0400895EE230E2E14
:10057400EA2F19F0EE0F0A94E9F70895EE230E2EF0
:10058400FD0121F0EE0FFF1F0A94E1F70895FA9F91
:10059400F02DEB9FF00DEA9FE02DF10D08956E2FE5
:1005A4006A9FF0016B9FF00D089504D0F0DF0EF404
:1005B400D9DF0895E894F7FF02C0D4DF6894B7FF49
:1005C40006C0A095B095119600F8039400FA08951A
:00000001FF
