:040000000C9451000B
:100004000C9435010C9400000C9400000C94000036
:100014000C9400000C9400000C9400000C9441011A
:100024000C9400000C9400000C9400000C9400004C
:100034000C9400000C9400000C9400000C9400003C
:100044000C9400000C9400000C9400000C9400002C
:100054003132333435363738392A3023010005003C
:10006400313A6F6E20323A6F666600333A6C6F63D2
:100074006B20343A756E6C6F636B000080C00100B6
:10008400020060000200040062000B0060016400D2
:1000940010006B016F0002007B0180000000F894E7
:1000A400EE27ECBBF1E0FBBFEBBFE5BF8DE0A2E0C8
:1000B400BB27ED938A95E9F780E094E0A0E6ED9301
:1000C4000197E9F7E2E8F0E085919591009761F0F6
:1000D400A591B59105901590BF01F00105900D9281
:1000E4000197E1F7FB01F0CFEFE5EDBFE4E0EEBFF0
:1000F400C0E6D1E00C944D011A930A93E1E4F0E0D8
:10010400E419F509A8EEB3E00E94D7028F016894C0
:1001140022F81DBD0CBDEEB5E560EEBD0991199147
:100124000895AA93E881E03011F40C948E02A8811A
:10013400A13011F4689420F8A881A23019F4E8944D
:1001440020F821F8A881A33019F4E89421F8D4DF29
:100154000C948E021A9310E02497CB9902C0249633
:1001640040C0E0E0EA83EB83AA81BB811397BCF52E
:10017400E8B3EF60E8BB18B2EA81A1E00E94B802DC
:10018400E095E121E8BBA5E0B0E00E94AA02E0E02E
:10019400E883E983A881B9811497DCF40E94900272
:1001A40091F4A881B981E3E00E94D102EC5AFF4F97
:1001B400AA81BB81EA0FFB1F14910E949002E9F30C
:1001C400E12F24960EC0E881F9813196E883F98302
:1001D400E1CFEA81FB813196EA83FB83C5CF249684
:1001E400BBCF19910895AA93E881E03011F40C94DF
:1001F4008E02A881A13011F4689420F8A881A2305D
:1002040011F4E89420F8A881A33011F4689423F839
:10021400A881A43011F4E89423F8A881A53011F43E
:10022400E89421F80C948E020E941402E0E0EA9310
:10023400A0E00E9404020E949E02A0E6B1E00E9497
:100244004102AFE0B0E00E94AA02E0E0EA93A1E03C
:100254000E940402AFE0B0E00E94AA02ABE6B1E063
:100264000E9441020895EA93EFB720FE02C022FEE5
:1002740001C002C0689421F8EFBFE9911895EA9390
:10028400EFB7EA93E0E0EEBDE89422F821F8E991B3
:10029400EFBFE99118957894E0E0EABBEFE0E7BBA3
:1002A400E0EFE8BBEFEFE4BBE0E0E5BBE0EEE1BB91
:1002B400E0E4E2BBEBBFE3E0E5BFE0E0EABF969A2F
:1002C4009598E9B7E460E9BFA0E10E9463020E9447
:1002D4009E02AADF0E949E022197E0E0E883C89B69
:1002E40002C0E1E0E883C99B02C0E2E0E883CA9B64
:1002F40002C0E3E0E883CB9B02C0E1E0E88323FC97
:1003040002C0A8810EDFCB9B21C02297E0E0E983E5
:1003140021DFE883A881A13311F4E1E0E983A88116
:10032400A23311F4E2E0E983A881A33311F4E3E0FA
:10033400E983A881A43311F4E4E0E983A881A53317
:1003440011F4E5E0E983A9814EDF229620FE02C084
:10035400E1E001C0E0E0E03011F4969801C0969A23
:1003640021FC02C0959801C0959A22FE02C0E1E0EA
:1003740001C0E0E0E03011F4979801C0979A21960B
:10038400ABCFFFCFFFE0FA95F1F70895A4B3AF70B8
:10039400A4BBA99AA898F6DFAA9AF4DFA3B3AA98F3
:1003A400F1DFAA9AEFDFAA98A7FDF5CF0895A07F01
:1003B400AB2BA5BBAA9A0E94C401AA980E94C401AF
:1003C4000895AA93A998A4B3A76FA4BBB5B3BF70AB
:1003D400A881EDDFA881A295EADFA99A0C948E0288
:1003E400AA9A0E94C401E3B3AA980E94C401E07FC0
:1003F40008950E94C401F4DFAE2FF2DFA998E295BC
:10040400EA2B0895AA930E94C801E881F0E0E55818
:10041400FE4FE081A981AE0F0E94E30179806880DC
:10042400229608950E94C801A2E00E94E3010E945E
:10043400C801ACE00E94E3010E94C801A1E00E944F
:10044400E301E0E06E2E7E2E0895AA93EF93FF93CE
:10045400A8816894AA3019F0E894791430F0639470
:10046400E0E0EA93A62DCEDF36F073948FDFA89AEE
:10047400A8810E94E301FF91EF910C948E02BA933C
:10048400AA931A93A981BA81ED91A983BA831E2FE5
:10049400E03019F0A12FD9DFF5CF18812396089504
:1004A400AA27BB271197F1F70895AA93A998A4B393
:1004B400A76FA4BBB5B3BF70A8810E94D901A99A44
:1004C4002BC0AA93AA98A8989880E881E058E09352
:1004D4007D01E881E054E0937E0132D031D030D008
:1004E400DFDFA0E2E2DFDCDFA8E22ED0A4E02CD044
:1004F400A5E82AD0A4B3AF70A4BBA99A0E94FB01BB
:10050400E53011F0E0E008C00E94C801A6E00E94B6
:10051400E3010E941402E1E02196089516B2E881F5
:10052400F9813496A1E0B0E00E94C002A12DB0E0B0
:10053400EA23FB2330970895AAE0B0E00C94AA02C2
:100544000E945202A0E3B1CF0E94E3010C94520234
:10055400109639F0A8958AEF90E00197F1F711977A
:10056400C9F70895F195E195F0400895EE230E2E14
:10057400EA2F19F0EE0F0A94E9F70895EE230E2EF0
:10058400FD0121F0EE0FFF1F0A94E1F70895FA9F91
:10059400F02DEB9FF00DEA9FE02DF10D08956E2FE5
:1005A4006A9FF0016B9FF00D089504D0F0DF0EF404
:1005B400D9DF0895E894F7FF02C0D4DF6894B7FF49
:1005C40006C0A095B095119600F8039400FA08951A
:00000001FF
